{
  "_format": "hh-sol-artifact-1",
  "contractName": "MyToken",
  "sourceName": "contracts/NFT.sol",
  "abi": [
    {
      "inputs": [],
      "stateMutability": "nonpayable",
      "type": "constructor"
    },
    {
      "inputs": [],
      "name": "ERC721EnumerableForbiddenBatchMint",
      "type": "error"
    },
    {
      "inputs": [
        {
          "internalType": "address",
          "name": "sender",
          "type": "address"
        },
        {
          "internalType": "uint256",
          "name": "tokenId",
          "type": "uint256"
        },
        {
          "internalType": "address",
          "name": "owner",
          "type": "address"
        }
      ],
      "name": "ERC721IncorrectOwner",
      "type": "error"
    },
    {
      "inputs": [
        {
          "internalType": "address",
          "name": "operator",
          "type": "address"
        },
        {
          "internalType": "uint256",
          "name": "tokenId",
          "type": "uint256"
        }
      ],
      "name": "ERC721InsufficientApproval",
      "type": "error"
    },
    {
      "inputs": [
        {
          "internalType": "address",
          "name": "approver",
          "type": "address"
        }
      ],
      "name": "ERC721InvalidApprover",
      "type": "error"
    },
    {
      "inputs": [
        {
          "internalType": "address",
          "name": "operator",
          "type": "address"
        }
      ],
      "name": "ERC721InvalidOperator",
      "type": "error"
    },
    {
      "inputs": [
        {
          "internalType": "address",
          "name": "owner",
          "type": "address"
        }
      ],
      "name": "ERC721InvalidOwner",
      "type": "error"
    },
    {
      "inputs": [
        {
          "internalType": "address",
          "name": "receiver",
          "type": "address"
        }
      ],
      "name": "ERC721InvalidReceiver",
      "type": "error"
    },
    {
      "inputs": [
        {
          "internalType": "address",
          "name": "sender",
          "type": "address"
        }
      ],
      "name": "ERC721InvalidSender",
      "type": "error"
    },
    {
      "inputs": [
        {
          "internalType": "uint256",
          "name": "tokenId",
          "type": "uint256"
        }
      ],
      "name": "ERC721NonexistentToken",
      "type": "error"
    },
    {
      "inputs": [
        {
          "internalType": "address",
          "name": "owner",
          "type": "address"
        },
        {
          "internalType": "uint256",
          "name": "index",
          "type": "uint256"
        }
      ],
      "name": "ERC721OutOfBoundsIndex",
      "type": "error"
    },
    {
      "inputs": [],
      "name": "EnforcedPause",
      "type": "error"
    },
    {
      "inputs": [],
      "name": "ExpectedPause",
      "type": "error"
    },
    {
      "anonymous": false,
      "inputs": [
        {
          "indexed": true,
          "internalType": "address",
          "name": "owner",
          "type": "address"
        },
        {
          "indexed": true,
          "internalType": "address",
          "name": "approved",
          "type": "address"
        },
        {
          "indexed": true,
          "internalType": "uint256",
          "name": "tokenId",
          "type": "uint256"
        }
      ],
      "name": "Approval",
      "type": "event"
    },
    {
      "anonymous": false,
      "inputs": [
        {
          "indexed": true,
          "internalType": "address",
          "name": "owner",
          "type": "address"
        },
        {
          "indexed": true,
          "internalType": "address",
          "name": "operator",
          "type": "address"
        },
        {
          "indexed": false,
          "internalType": "bool",
          "name": "approved",
          "type": "bool"
        }
      ],
      "name": "ApprovalForAll",
      "type": "event"
    },
    {
      "anonymous": false,
      "inputs": [
        {
          "indexed": false,
          "internalType": "uint256",
          "name": "_fromTokenId",
          "type": "uint256"
        },
        {
          "indexed": false,
          "internalType": "uint256",
          "name": "_toTokenId",
          "type": "uint256"
        }
      ],
      "name": "BatchMetadataUpdate",
      "type": "event"
    },
    {
      "anonymous": false,
      "inputs": [
        {
          "indexed": false,
          "internalType": "uint256",
          "name": "_tokenId",
          "type": "uint256"
        }
      ],
      "name": "MetadataUpdate",
      "type": "event"
    },
    {
      "anonymous": false,
      "inputs": [
        {
          "indexed": true,
          "internalType": "address",
          "name": "to",
          "type": "address"
        },
        {
          "indexed": false,
          "internalType": "uint256",
          "name": "tokenId",
          "type": "uint256"
        },
        {
          "indexed": false,
          "internalType": "string",
          "name": "Uri",
          "type": "string"
        },
        {
          "indexed": false,
          "internalType": "uint8",
          "name": "RoyaltyAmount",
          "type": "uint8"
        }
      ],
      "name": "Nft_Info",
      "type": "event"
    },
    {
      "anonymous": false,
      "inputs": [
        {
          "indexed": false,
          "internalType": "address",
          "name": "account",
          "type": "address"
        }
      ],
      "name": "Paused",
      "type": "event"
    },
    {
      "anonymous": false,
      "inputs": [
        {
          "indexed": true,
          "internalType": "address",
          "name": "from",
          "type": "address"
        },
        {
          "indexed": true,
          "internalType": "address",
          "name": "to",
          "type": "address"
        },
        {
          "indexed": true,
          "internalType": "uint256",
          "name": "tokenId",
          "type": "uint256"
        }
      ],
      "name": "Transfer",
      "type": "event"
    },
    {
      "anonymous": false,
      "inputs": [
        {
          "indexed": false,
          "internalType": "address",
          "name": "account",
          "type": "address"
        }
      ],
      "name": "Unpaused",
      "type": "event"
    },
    {
      "inputs": [
        {
          "internalType": "address",
          "name": "to",
          "type": "address"
        },
        {
          "internalType": "uint256",
          "name": "tokenId",
          "type": "uint256"
        }
      ],
      "name": "approve",
      "outputs": [],
      "stateMutability": "nonpayable",
      "type": "function"
    },
    {
      "inputs": [
        {
          "internalType": "address",
          "name": "owner",
          "type": "address"
        }
      ],
      "name": "balanceOf",
      "outputs": [
        {
          "internalType": "uint256",
          "name": "",
          "type": "uint256"
        }
      ],
      "stateMutability": "view",
      "type": "function"
    },
    {
      "inputs": [
        {
          "internalType": "uint256",
          "name": "tokenId",
          "type": "uint256"
        }
      ],
      "name": "getApproved",
      "outputs": [
        {
          "internalType": "address",
          "name": "",
          "type": "address"
        }
      ],
      "stateMutability": "view",
      "type": "function"
    },
    {
      "inputs": [
        {
          "internalType": "uint256",
          "name": "_tokenId",
          "type": "uint256"
        }
      ],
      "name": "getRoyalty",
      "outputs": [
        {
          "internalType": "uint8",
          "name": "",
          "type": "uint8"
        }
      ],
      "stateMutability": "view",
      "type": "function"
    },
    {
      "inputs": [
        {
          "internalType": "address",
          "name": "owner",
          "type": "address"
        },
        {
          "internalType": "address",
          "name": "operator",
          "type": "address"
        }
      ],
      "name": "isApprovedForAll",
      "outputs": [
        {
          "internalType": "bool",
          "name": "",
          "type": "bool"
        }
      ],
      "stateMutability": "view",
      "type": "function"
    },
    {
      "inputs": [
        {
          "internalType": "address",
          "name": "_to",
          "type": "address"
        },
        {
          "internalType": "string",
          "name": "_uri",
          "type": "string"
        },
        {
          "internalType": "uint8",
          "name": "_royaltyAmount",
          "type": "uint8"
        }
      ],
      "name": "mintNFT",
      "outputs": [],
      "stateMutability": "nonpayable",
      "type": "function"
    },
    {
      "inputs": [],
      "name": "name",
      "outputs": [
        {
          "internalType": "string",
          "name": "",
          "type": "string"
        }
      ],
      "stateMutability": "view",
      "type": "function"
    },
    {
      "inputs": [
        {
          "internalType": "uint256",
          "name": "tokenId",
          "type": "uint256"
        }
      ],
      "name": "ownerOf",
      "outputs": [
        {
          "internalType": "address",
          "name": "",
          "type": "address"
        }
      ],
      "stateMutability": "view",
      "type": "function"
    },
    {
      "inputs": [],
      "name": "pause",
      "outputs": [],
      "stateMutability": "nonpayable",
      "type": "function"
    },
    {
      "inputs": [],
      "name": "paused",
      "outputs": [
        {
          "internalType": "bool",
          "name": "",
          "type": "bool"
        }
      ],
      "stateMutability": "view",
      "type": "function"
    },
    {
      "inputs": [
        {
          "internalType": "address",
          "name": "from",
          "type": "address"
        },
        {
          "internalType": "address",
          "name": "to",
          "type": "address"
        },
        {
          "internalType": "uint256",
          "name": "tokenId",
          "type": "uint256"
        }
      ],
      "name": "safeTransferFrom",
      "outputs": [],
      "stateMutability": "nonpayable",
      "type": "function"
    },
    {
      "inputs": [
        {
          "internalType": "address",
          "name": "from",
          "type": "address"
        },
        {
          "internalType": "address",
          "name": "to",
          "type": "address"
        },
        {
          "internalType": "uint256",
          "name": "tokenId",
          "type": "uint256"
        },
        {
          "internalType": "bytes",
          "name": "data",
          "type": "bytes"
        }
      ],
      "name": "safeTransferFrom",
      "outputs": [],
      "stateMutability": "nonpayable",
      "type": "function"
    },
    {
      "inputs": [
        {
          "internalType": "address",
          "name": "operator",
          "type": "address"
        },
        {
          "internalType": "bool",
          "name": "approved",
          "type": "bool"
        }
      ],
      "name": "setApprovalForAll",
      "outputs": [],
      "stateMutability": "nonpayable",
      "type": "function"
    },
    {
      "inputs": [
        {
          "internalType": "address",
          "name": "_marketplace",
          "type": "address"
        }
      ],
      "name": "setMarketplaceAddress",
      "outputs": [],
      "stateMutability": "nonpayable",
      "type": "function"
    },
    {
      "inputs": [
        {
          "internalType": "uint8",
          "name": "_royaltyfee",
          "type": "uint8"
        }
      ],
      "name": "setRoyaltyPercentage",
      "outputs": [],
      "stateMutability": "nonpayable",
      "type": "function"
    },
    {
      "inputs": [
        {
          "internalType": "bytes4",
          "name": "interfaceId",
          "type": "bytes4"
        }
      ],
      "name": "supportsInterface",
      "outputs": [
        {
          "internalType": "bool",
          "name": "",
          "type": "bool"
        }
      ],
      "stateMutability": "view",
      "type": "function"
    },
    {
      "inputs": [],
      "name": "symbol",
      "outputs": [
        {
          "internalType": "string",
          "name": "",
          "type": "string"
        }
      ],
      "stateMutability": "view",
      "type": "function"
    },
    {
      "inputs": [
        {
          "internalType": "uint256",
          "name": "index",
          "type": "uint256"
        }
      ],
      "name": "tokenByIndex",
      "outputs": [
        {
          "internalType": "uint256",
          "name": "",
          "type": "uint256"
        }
      ],
      "stateMutability": "view",
      "type": "function"
    },
    {
      "inputs": [
        {
          "internalType": "address",
          "name": "owner",
          "type": "address"
        },
        {
          "internalType": "uint256",
          "name": "index",
          "type": "uint256"
        }
      ],
      "name": "tokenOfOwnerByIndex",
      "outputs": [
        {
          "internalType": "uint256",
          "name": "",
          "type": "uint256"
        }
      ],
      "stateMutability": "view",
      "type": "function"
    },
    {
      "inputs": [
        {
          "internalType": "uint256",
          "name": "tokenId",
          "type": "uint256"
        }
      ],
      "name": "tokenURI",
      "outputs": [
        {
          "internalType": "string",
          "name": "",
          "type": "string"
        }
      ],
      "stateMutability": "view",
      "type": "function"
    },
    {
      "inputs": [],
      "name": "totalSupply",
      "outputs": [
        {
          "internalType": "uint256",
          "name": "",
          "type": "uint256"
        }
      ],
      "stateMutability": "view",
      "type": "function"
    },
    {
      "inputs": [
        {
          "internalType": "address",
          "name": "from",
          "type": "address"
        },
        {
          "internalType": "address",
          "name": "to",
          "type": "address"
        },
        {
          "internalType": "uint256",
          "name": "tokenId",
          "type": "uint256"
        }
      ],
      "name": "transferFrom",
      "outputs": [],
      "stateMutability": "nonpayable",
      "type": "function"
    },
    {
      "inputs": [],
      "name": "unpause",
      "outputs": [],
      "stateMutability": "nonpayable",
      "type": "function"
    }
  ],
  "bytecode": "0x60806040526001600c553480156200001657600080fd5b506040518060400160405280600781526020017f4d79546f6b656e000000000000000000000000000000000000000000000000008152506040518060400160405280600381526020017f4d544b0000000000000000000000000000000000000000000000000000000000815250816000908162000094919062000344565b508060019081620000a6919062000344565b5050506000600b60006101000a81548160ff0219169083151502179055506200042b565b600081519050919050565b7f4e487b7100000000000000000000000000000000000000000000000000000000600052604160045260246000fd5b7f4e487b7100000000000000000000000000000000000000000000000000000000600052602260045260246000fd5b600060028204905060018216806200014c57607f821691505b60208210810362000162576200016162000104565b5b50919050565b60008190508160005260206000209050919050565b60006020601f8301049050919050565b600082821b905092915050565b600060088302620001cc7fffffffffffffffffffffffffffffffffffffffffffffffffffffffffffffffff826200018d565b620001d886836200018d565b95508019841693508086168417925050509392505050565b6000819050919050565b6000819050919050565b6000620002256200021f6200021984620001f0565b620001fa565b620001f0565b9050919050565b6000819050919050565b620002418362000204565b6200025962000250826200022c565b8484546200019a565b825550505050565b600090565b6200027062000261565b6200027d81848462000236565b505050565b5b81811015620002a5576200029960008262000266565b60018101905062000283565b5050565b601f821115620002f457620002be8162000168565b620002c9846200017d565b81016020851015620002d9578190505b620002f1620002e8856200017d565b83018262000282565b50505b505050565b600082821c905092915050565b60006200031960001984600802620002f9565b1980831691505092915050565b600062000334838362000306565b9150826002028217905092915050565b6200034f82620000ca565b67ffffffffffffffff8111156200036b576200036a620000d5565b5b62000377825462000133565b62000384828285620002a9565b600060209050601f831160018114620003bc5760008415620003a7578287015190505b620003b3858262000326565b86555062000423565b601f198416620003cc8662000168565b60005b82811015620003f657848901518255600182019150602085019450602081019050620003cf565b8683101562000416578489015162000412601f89168262000306565b8355505b6001600288020188555050505b505050505050565b6133a7806200043b6000396000f3fe608060405234801561001057600080fd5b506004361061014d5760003560e01c80635c975abb116100c3578063a22cb4651161007c578063a22cb4651461039e578063a689e8c2146103ba578063b47cc556146103d6578063b88d4fde146103f2578063c87b56dd1461040e578063e985e9c51461043e5761014d565b80635c975abb146102dc5780636352211e146102fa57806370a082311461032a5780638456cb591461035a57806395d89b41146103645780639a6dee7f146103825761014d565b80631af9cf49116101155780631af9cf491461020a57806323b872dd1461023a5780632f745c59146102565780633f4ba83a1461028657806342842e0e146102905780634f6ccce7146102ac5761014d565b806301ffc9a71461015257806306fdde0314610182578063081812fc146101a0578063095ea7b3146101d057806318160ddd146101ec575b600080fd5b61016c60048036038101906101679190612522565b61046e565b604051610179919061256a565b60405180910390f35b61018a610480565b6040516101979190612615565b60405180910390f35b6101ba60048036038101906101b5919061266d565b610512565b6040516101c791906126db565b60405180910390f35b6101ea60048036038101906101e59190612722565b61052e565b005b6101f4610544565b6040516102019190612771565b60405180910390f35b610224600480360381019061021f919061266d565b610551565b60405161023191906127a8565b60405180910390f35b610254600480360381019061024f91906127c3565b61057b565b005b610270600480360381019061026b9190612722565b61067d565b60405161027d9190612771565b60405180910390f35b61028e610726565b005b6102aa60048036038101906102a591906127c3565b6107c0565b005b6102c660048036038101906102c1919061266d565b6107e0565b6040516102d39190612771565b60405180910390f35b6102e4610856565b6040516102f1919061256a565b60405180910390f35b610314600480360381019061030f919061266d565b61086d565b60405161032191906126db565b60405180910390f35b610344600480360381019061033f9190612816565b61087f565b6040516103519190612771565b60405180910390f35b610362610939565b005b61036c6109d3565b6040516103799190612615565b60405180910390f35b61039c6004803603810190610397919061286f565b610a65565b005b6103b860048036038101906103b391906128c8565b610b13565b005b6103d460048036038101906103cf9190612a3d565b610b29565b005b6103f060048036038101906103eb9190612816565b610bbe565b005b61040c60048036038101906104079190612b4d565b610c92565b005b6104286004803603810190610423919061266d565b610caf565b6040516104359190612615565b60405180910390f35b61045860048036038101906104539190612bd0565b610cc1565b604051610465919061256a565b60405180910390f35b600061047982610d55565b9050919050565b60606000805461048f90612c3f565b80601f01602080910402602001604051908101604052809291908181526020018280546104bb90612c3f565b80156105085780601f106104dd57610100808354040283529160200191610508565b820191906000526020600020905b8154815290600101906020018083116104eb57829003601f168201915b5050505050905090565b600061051d82610db6565b5061052782610e3e565b9050919050565b610540828261053b610e7b565b610e83565b5050565b6000600880549050905090565b6000600f600083815260200190815260200160002060009054906101000a900460ff169050919050565b600073ffffffffffffffffffffffffffffffffffffffff168273ffffffffffffffffffffffffffffffffffffffff16036105ed5760006040517f64a0ae920000000000000000000000000000000000000000000000000000000081526004016105e491906126db565b60405180910390fd5b600061060183836105fc610e7b565b610e95565b90508373ffffffffffffffffffffffffffffffffffffffff168173ffffffffffffffffffffffffffffffffffffffff1614610677578382826040517f64283d7b00000000000000000000000000000000000000000000000000000000815260040161066e93929190612c70565b60405180910390fd5b50505050565b60006106888361087f565b82106106cd5782826040517fa57d13dc0000000000000000000000000000000000000000000000000000000081526004016106c4929190612ca7565b60405180910390fd5b600660008473ffffffffffffffffffffffffffffffffffffffff1673ffffffffffffffffffffffffffffffffffffffff168152602001908152602001600020600083815260200190815260200160002054905092915050565b600d60009054906101000a900473ffffffffffffffffffffffffffffffffffffffff1673ffffffffffffffffffffffffffffffffffffffff163373ffffffffffffffffffffffffffffffffffffffff16146107b6576040517f08c379a00000000000000000000000000000000000000000000000000000000081526004016107ad90612d1c565b60405180910390fd5b6107be610eab565b565b6107db83838360405180602001604052806000815250610c92565b505050565b60006107ea610544565b8210610830576000826040517fa57d13dc000000000000000000000000000000000000000000000000000000008152600401610827929190612ca7565b60405180910390fd5b6008828154811061084457610843612d3c565b5b90600052602060002001549050919050565b6000600b60009054906101000a900460ff16905090565b600061087882610db6565b9050919050565b60008073ffffffffffffffffffffffffffffffffffffffff168273ffffffffffffffffffffffffffffffffffffffff16036108f25760006040517f89c62b640000000000000000000000000000000000000000000000000000000081526004016108e991906126db565b60405180910390fd5b600360008373ffffffffffffffffffffffffffffffffffffffff1673ffffffffffffffffffffffffffffffffffffffff168152602001908152602001600020549050919050565b600d60009054906101000a900473ffffffffffffffffffffffffffffffffffffffff1673ffffffffffffffffffffffffffffffffffffffff163373ffffffffffffffffffffffffffffffffffffffff16146109c9576040517f08c379a00000000000000000000000000000000000000000000000000000000081526004016109c090612d1c565b60405180910390fd5b6109d1610f0e565b565b6060600180546109e290612c3f565b80601f0160208091040260200160405190810160405280929190818152602001828054610a0e90612c3f565b8015610a5b5780601f10610a3057610100808354040283529160200191610a5b565b820191906000526020600020905b815481529060010190602001808311610a3e57829003601f168201915b5050505050905090565b600e60009054906101000a900473ffffffffffffffffffffffffffffffffffffffff1673ffffffffffffffffffffffffffffffffffffffff163373ffffffffffffffffffffffffffffffffffffffff1614610af5576040517f08c379a0000000000000000000000000000000000000000000000000000000008152600401610aec90612db7565b60405180910390fd5b80600e60146101000a81548160ff021916908360ff16021790555050565b610b25610b1e610e7b565b8383610f71565b5050565b600e60149054906101000a900460ff1660ff168160ff161015610b81576040517f08c379a0000000000000000000000000000000000000000000000000000000008152600401610b7890612e49565b60405180910390fd5b610b8c8383836110e0565b610bb9600e60009054906101000a900473ffffffffffffffffffffffffffffffffffffffff166001610b13565b505050565b600d60009054906101000a900473ffffffffffffffffffffffffffffffffffffffff1673ffffffffffffffffffffffffffffffffffffffff163373ffffffffffffffffffffffffffffffffffffffff1614610c4e576040517f08c379a0000000000000000000000000000000000000000000000000000000008152600401610c4590612d1c565b60405180910390fd5b80600e60006101000a81548173ffffffffffffffffffffffffffffffffffffffff021916908373ffffffffffffffffffffffffffffffffffffffff16021790555050565b610c9d84848461057b565b610ca984848484611193565b50505050565b6060610cba8261134a565b9050919050565b6000600560008473ffffffffffffffffffffffffffffffffffffffff1673ffffffffffffffffffffffffffffffffffffffff16815260200190815260200160002060008373ffffffffffffffffffffffffffffffffffffffff1673ffffffffffffffffffffffffffffffffffffffff16815260200190815260200160002060009054906101000a900460ff16905092915050565b6000634906490660e01b7bffffffffffffffffffffffffffffffffffffffffffffffffffffffff1916827bffffffffffffffffffffffffffffffffffffffffffffffffffffffff19161480610daf5750610dae8261145d565b5b9050919050565b600080610dc2836114d7565b9050600073ffffffffffffffffffffffffffffffffffffffff168173ffffffffffffffffffffffffffffffffffffffff1603610e3557826040517f7e273289000000000000000000000000000000000000000000000000000000008152600401610e2c9190612771565b60405180910390fd5b80915050919050565b60006004600083815260200190815260200160002060009054906101000a900473ffffffffffffffffffffffffffffffffffffffff169050919050565b600033905090565b610e908383836001611514565b505050565b6000610ea28484846116d9565b90509392505050565b610eb36116f7565b6000600b60006101000a81548160ff0219169083151502179055507f5db9ee0a495bf2e6ff9c91a7834c1ba4fdd244a5e8aa4e537bd38aeae4b073aa610ef7610e7b565b604051610f0491906126db565b60405180910390a1565b610f16611737565b6001600b60006101000a81548160ff0219169083151502179055507f62e78cea01bee320cd4e420270b5ea74000d11b0c9f74754ebdbfc544b05a258610f5a610e7b565b604051610f6791906126db565b60405180910390a1565b600073ffffffffffffffffffffffffffffffffffffffff168273ffffffffffffffffffffffffffffffffffffffff1603610fe257816040517f5b08ba18000000000000000000000000000000000000000000000000000000008152600401610fd991906126db565b60405180910390fd5b80600560008573ffffffffffffffffffffffffffffffffffffffff1673ffffffffffffffffffffffffffffffffffffffff16815260200190815260200160002060008473ffffffffffffffffffffffffffffffffffffffff1673ffffffffffffffffffffffffffffffffffffffff16815260200190815260200160002060006101000a81548160ff0219169083151502179055508173ffffffffffffffffffffffffffffffffffffffff168373ffffffffffffffffffffffffffffffffffffffff167f17307eab39ab6107e8899845ad3d59bd9653f200f220920489ca2b5937696c31836040516110d3919061256a565b60405180910390a3505050565b6000600c60008154809291906110f590612e98565b9190505590506111058482611778565b61110f8184611796565b81600f600083815260200190815260200160002060006101000a81548160ff021916908360ff1602179055508373ffffffffffffffffffffffffffffffffffffffff167f3785db4eaf08f2d07b2445b836c95ae17f967ad5e3440c058983461e3e6cd46482858560405161118593929190612ee0565b60405180910390a250505050565b60008373ffffffffffffffffffffffffffffffffffffffff163b1115611344578273ffffffffffffffffffffffffffffffffffffffff1663150b7a026111d7610e7b565b8685856040518563ffffffff1660e01b81526004016111f99493929190612f73565b6020604051808303816000875af192505050801561123557506040513d601f19601f820116820180604052508101906112329190612fd4565b60015b6112b9573d8060008114611265576040519150601f19603f3d011682016040523d82523d6000602084013e61126a565b606091505b5060008151036112b157836040517f64a0ae920000000000000000000000000000000000000000000000000000000081526004016112a891906126db565b60405180910390fd5b805181602001fd5b63150b7a0260e01b7bffffffffffffffffffffffffffffffffffffffffffffffffffffffff1916817bffffffffffffffffffffffffffffffffffffffffffffffffffffffff19161461134257836040517f64a0ae9200000000000000000000000000000000000000000000000000000000815260040161133991906126db565b60405180910390fd5b505b50505050565b606061135582610db6565b506000600a6000848152602001908152602001600020805461137690612c3f565b80601f01602080910402602001604051908101604052809291908181526020018280546113a290612c3f565b80156113ef5780601f106113c4576101008083540402835291602001916113ef565b820191906000526020600020905b8154815290600101906020018083116113d257829003601f168201915b5050505050905060006114006117f2565b90506000815103611415578192505050611458565b60008251111561144a57808260405160200161143292919061303d565b60405160208183030381529060405292505050611458565b61145384611809565b925050505b919050565b60007f780e9d63000000000000000000000000000000000000000000000000000000007bffffffffffffffffffffffffffffffffffffffffffffffffffffffff1916827bffffffffffffffffffffffffffffffffffffffffffffffffffffffff191614806114d057506114cf82611872565b5b9050919050565b60006002600083815260200190815260200160002060009054906101000a900473ffffffffffffffffffffffffffffffffffffffff169050919050565b808061154d5750600073ffffffffffffffffffffffffffffffffffffffff168273ffffffffffffffffffffffffffffffffffffffff1614155b1561168157600061155d84610db6565b9050600073ffffffffffffffffffffffffffffffffffffffff168373ffffffffffffffffffffffffffffffffffffffff16141580156115c857508273ffffffffffffffffffffffffffffffffffffffff168173ffffffffffffffffffffffffffffffffffffffff1614155b80156115db57506115d98184610cc1565b155b1561161d57826040517fa9fbf51f00000000000000000000000000000000000000000000000000000000815260040161161491906126db565b60405180910390fd5b811561167f57838573ffffffffffffffffffffffffffffffffffffffff168273ffffffffffffffffffffffffffffffffffffffff167f8c5be1e5ebec7d5bd14f71427d1e84f3dd0314c0f7b2291e5b200ac8c7c3b92560405160405180910390a45b505b836004600085815260200190815260200160002060006101000a81548173ffffffffffffffffffffffffffffffffffffffff021916908373ffffffffffffffffffffffffffffffffffffffff16021790555050505050565b60006116e3611737565b6116ee848484611954565b90509392505050565b6116ff610856565b611735576040517f8dfc202b00000000000000000000000000000000000000000000000000000000815260040160405180910390fd5b565b61173f610856565b15611776576040517fd93c066500000000000000000000000000000000000000000000000000000000815260040160405180910390fd5b565b611792828260405180602001604052806000815250611a71565b5050565b80600a600084815260200190815260200160002090816117b6919061320d565b507ff8e1a15aba9398e019f0b49df1a4fde98ee17ae345cb5f6b5e2c27f5033e8ce7826040516117e69190612771565b60405180910390a15050565b606060405180602001604052806000815250905090565b606061181482610db6565b50600061181f6117f2565b9050600081511161183f576040518060200160405280600081525061186a565b8061184984611a8d565b60405160200161185a92919061303d565b6040516020818303038152906040525b915050919050565b60007f80ac58cd000000000000000000000000000000000000000000000000000000007bffffffffffffffffffffffffffffffffffffffffffffffffffffffff1916827bffffffffffffffffffffffffffffffffffffffffffffffffffffffff1916148061193d57507f5b5e139f000000000000000000000000000000000000000000000000000000007bffffffffffffffffffffffffffffffffffffffffffffffffffffffff1916827bffffffffffffffffffffffffffffffffffffffffffffffffffffffff1916145b8061194d575061194c82611b5b565b5b9050919050565b600080611962858585611bc5565b9050600073ffffffffffffffffffffffffffffffffffffffff168173ffffffffffffffffffffffffffffffffffffffff16036119a6576119a184611ddf565b6119e5565b8473ffffffffffffffffffffffffffffffffffffffff168173ffffffffffffffffffffffffffffffffffffffff16146119e4576119e38185611e28565b5b5b600073ffffffffffffffffffffffffffffffffffffffff168573ffffffffffffffffffffffffffffffffffffffff1603611a2757611a2284611f89565b611a66565b8473ffffffffffffffffffffffffffffffffffffffff168173ffffffffffffffffffffffffffffffffffffffff1614611a6557611a64858561205a565b5b5b809150509392505050565b611a7b83836120e5565b611a886000848484611193565b505050565b606060006001611a9c846121de565b01905060008167ffffffffffffffff811115611abb57611aba612912565b5b6040519080825280601f01601f191660200182016040528015611aed5781602001600182028036833780820191505090505b509050600082602001820190505b600115611b50578080600190039150507f3031323334353637383961626364656600000000000000000000000000000000600a86061a8153600a8581611b4457611b436132df565b5b04945060008503611afb575b819350505050919050565b60007f01ffc9a7000000000000000000000000000000000000000000000000000000007bffffffffffffffffffffffffffffffffffffffffffffffffffffffff1916827bffffffffffffffffffffffffffffffffffffffffffffffffffffffff1916149050919050565b600080611bd1846114d7565b9050600073ffffffffffffffffffffffffffffffffffffffff168373ffffffffffffffffffffffffffffffffffffffff1614611c1357611c12818486612331565b5b600073ffffffffffffffffffffffffffffffffffffffff168173ffffffffffffffffffffffffffffffffffffffff1614611ca457611c55600085600080611514565b6001600360008373ffffffffffffffffffffffffffffffffffffffff1673ffffffffffffffffffffffffffffffffffffffff168152602001908152602001600020600082825403925050819055505b600073ffffffffffffffffffffffffffffffffffffffff168573ffffffffffffffffffffffffffffffffffffffff1614611d27576001600360008773ffffffffffffffffffffffffffffffffffffffff1673ffffffffffffffffffffffffffffffffffffffff168152602001908152602001600020600082825401925050819055505b846002600086815260200190815260200160002060006101000a81548173ffffffffffffffffffffffffffffffffffffffff021916908373ffffffffffffffffffffffffffffffffffffffff160217905550838573ffffffffffffffffffffffffffffffffffffffff168273ffffffffffffffffffffffffffffffffffffffff167fddf252ad1be2c89b69c2b068fc378daa952ba7f163c4a11628f55a4df523b3ef60405160405180910390a4809150509392505050565b6008805490506009600083815260200190815260200160002081905550600881908060018154018082558091505060019003906000526020600020016000909190919091505550565b6000611e338361087f565b9050600060076000848152602001908152602001600020549050818114611f18576000600660008673ffffffffffffffffffffffffffffffffffffffff1673ffffffffffffffffffffffffffffffffffffffff168152602001908152602001600020600084815260200190815260200160002054905080600660008773ffffffffffffffffffffffffffffffffffffffff1673ffffffffffffffffffffffffffffffffffffffff168152602001908152602001600020600084815260200190815260200160002081905550816007600083815260200190815260200160002081905550505b6007600084815260200190815260200160002060009055600660008573ffffffffffffffffffffffffffffffffffffffff1673ffffffffffffffffffffffffffffffffffffffff16815260200190815260200160002060008381526020019081526020016000206000905550505050565b60006001600880549050611f9d919061330e565b9050600060096000848152602001908152602001600020549050600060088381548110611fcd57611fcc612d3c565b5b906000526020600020015490508060088381548110611fef57611fee612d3c565b5b90600052602060002001819055508160096000838152602001908152602001600020819055506009600085815260200190815260200160002060009055600880548061203e5761203d613342565b5b6001900381819060005260206000200160009055905550505050565b600060016120678461087f565b612071919061330e565b905081600660008573ffffffffffffffffffffffffffffffffffffffff1673ffffffffffffffffffffffffffffffffffffffff168152602001908152602001600020600083815260200190815260200160002081905550806007600084815260200190815260200160002081905550505050565b600073ffffffffffffffffffffffffffffffffffffffff168273ffffffffffffffffffffffffffffffffffffffff16036121575760006040517f64a0ae9200000000000000000000000000000000000000000000000000000000815260040161214e91906126db565b60405180910390fd5b600061216583836000610e95565b9050600073ffffffffffffffffffffffffffffffffffffffff168173ffffffffffffffffffffffffffffffffffffffff16146121d95760006040517f73c6ac6e0000000000000000000000000000000000000000000000000000000081526004016121d091906126db565b60405180910390fd5b505050565b600080600090507a184f03e93ff9f4daa797ed6e38ed64bf6a1f010000000000000000831061223c577a184f03e93ff9f4daa797ed6e38ed64bf6a1f0100000000000000008381612232576122316132df565b5b0492506040810190505b6d04ee2d6d415b85acef81000000008310612279576d04ee2d6d415b85acef8100000000838161226f5761226e6132df565b5b0492506020810190505b662386f26fc1000083106122a857662386f26fc10000838161229e5761229d6132df565b5b0492506010810190505b6305f5e10083106122d1576305f5e10083816122c7576122c66132df565b5b0492506008810190505b61271083106122f65761271083816122ec576122eb6132df565b5b0492506004810190505b60648310612319576064838161230f5761230e6132df565b5b0492506002810190505b600a8310612328576001810190505b80915050919050565b61233c8383836123f5565b6123f057600073ffffffffffffffffffffffffffffffffffffffff168373ffffffffffffffffffffffffffffffffffffffff16036123b157806040517f7e2732890000000000000000000000000000000000000000000000000000000081526004016123a89190612771565b60405180910390fd5b81816040517f177e802f0000000000000000000000000000000000000000000000000000000081526004016123e7929190612ca7565b60405180910390fd5b505050565b60008073ffffffffffffffffffffffffffffffffffffffff168373ffffffffffffffffffffffffffffffffffffffff16141580156124ad57508273ffffffffffffffffffffffffffffffffffffffff168473ffffffffffffffffffffffffffffffffffffffff16148061246e575061246d8484610cc1565b5b806124ac57508273ffffffffffffffffffffffffffffffffffffffff1661249483610e3e565b73ffffffffffffffffffffffffffffffffffffffff16145b5b90509392505050565b6000604051905090565b600080fd5b600080fd5b60007fffffffff0000000000000000000000000000000000000000000000000000000082169050919050565b6124ff816124ca565b811461250a57600080fd5b50565b60008135905061251c816124f6565b92915050565b600060208284031215612538576125376124c0565b5b60006125468482850161250d565b91505092915050565b60008115159050919050565b6125648161254f565b82525050565b600060208201905061257f600083018461255b565b92915050565b600081519050919050565b600082825260208201905092915050565b60005b838110156125bf5780820151818401526020810190506125a4565b60008484015250505050565b6000601f19601f8301169050919050565b60006125e782612585565b6125f18185612590565b93506126018185602086016125a1565b61260a816125cb565b840191505092915050565b6000602082019050818103600083015261262f81846125dc565b905092915050565b6000819050919050565b61264a81612637565b811461265557600080fd5b50565b60008135905061266781612641565b92915050565b600060208284031215612683576126826124c0565b5b600061269184828501612658565b91505092915050565b600073ffffffffffffffffffffffffffffffffffffffff82169050919050565b60006126c58261269a565b9050919050565b6126d5816126ba565b82525050565b60006020820190506126f060008301846126cc565b92915050565b6126ff816126ba565b811461270a57600080fd5b50565b60008135905061271c816126f6565b92915050565b60008060408385031215612739576127386124c0565b5b60006127478582860161270d565b925050602061275885828601612658565b9150509250929050565b61276b81612637565b82525050565b60006020820190506127866000830184612762565b92915050565b600060ff82169050919050565b6127a28161278c565b82525050565b60006020820190506127bd6000830184612799565b92915050565b6000806000606084860312156127dc576127db6124c0565b5b60006127ea8682870161270d565b93505060206127fb8682870161270d565b925050604061280c86828701612658565b9150509250925092565b60006020828403121561282c5761282b6124c0565b5b600061283a8482850161270d565b91505092915050565b61284c8161278c565b811461285757600080fd5b50565b60008135905061286981612843565b92915050565b600060208284031215612885576128846124c0565b5b60006128938482850161285a565b91505092915050565b6128a58161254f565b81146128b057600080fd5b50565b6000813590506128c28161289c565b92915050565b600080604083850312156128df576128de6124c0565b5b60006128ed8582860161270d565b92505060206128fe858286016128b3565b9150509250929050565b600080fd5b600080fd5b7f4e487b7100000000000000000000000000000000000000000000000000000000600052604160045260246000fd5b61294a826125cb565b810181811067ffffffffffffffff8211171561296957612968612912565b5b80604052505050565b600061297c6124b6565b90506129888282612941565b919050565b600067ffffffffffffffff8211156129a8576129a7612912565b5b6129b1826125cb565b9050602081019050919050565b82818337600083830152505050565b60006129e06129db8461298d565b612972565b9050828152602081018484840111156129fc576129fb61290d565b5b612a078482856129be565b509392505050565b600082601f830112612a2457612a23612908565b5b8135612a348482602086016129cd565b91505092915050565b600080600060608486031215612a5657612a556124c0565b5b6000612a648682870161270d565b935050602084013567ffffffffffffffff811115612a8557612a846124c5565b5b612a9186828701612a0f565b9250506040612aa28682870161285a565b9150509250925092565b600067ffffffffffffffff821115612ac757612ac6612912565b5b612ad0826125cb565b9050602081019050919050565b6000612af0612aeb84612aac565b612972565b905082815260208101848484011115612b0c57612b0b61290d565b5b612b178482856129be565b509392505050565b600082601f830112612b3457612b33612908565b5b8135612b44848260208601612add565b91505092915050565b60008060008060808587031215612b6757612b666124c0565b5b6000612b758782880161270d565b9450506020612b868782880161270d565b9350506040612b9787828801612658565b925050606085013567ffffffffffffffff811115612bb857612bb76124c5565b5b612bc487828801612b1f565b91505092959194509250565b60008060408385031215612be757612be66124c0565b5b6000612bf58582860161270d565b9250506020612c068582860161270d565b9150509250929050565b7f4e487b7100000000000000000000000000000000000000000000000000000000600052602260045260246000fd5b60006002820490506001821680612c5757607f821691505b602082108103612c6a57612c69612c10565b5b50919050565b6000606082019050612c8560008301866126cc565b612c926020830185612762565b612c9f60408301846126cc565b949350505050565b6000604082019050612cbc60008301856126cc565b612cc96020830184612762565b9392505050565b7f796f7520617265206e6f7420746865206f776e65720000000000000000000000600082015250565b6000612d06601583612590565b9150612d1182612cd0565b602082019050919050565b60006020820190508181036000830152612d3581612cf9565b9050919050565b7f4e487b7100000000000000000000000000000000000000000000000000000000600052603260045260246000fd5b7f596f752068617665206e6f742074686520616363657373210000000000000000600082015250565b6000612da1601883612590565b9150612dac82612d6b565b602082019050919050565b60006020820190508181036000830152612dd081612d94565b9050919050565b7f526f79616c747920666565206973206e6f74206163636f7264696e6720746f2060008201527f746865204d61726b6574706c6163650000000000000000000000000000000000602082015250565b6000612e33602f83612590565b9150612e3e82612dd7565b604082019050919050565b60006020820190508181036000830152612e6281612e26565b9050919050565b7f4e487b7100000000000000000000000000000000000000000000000000000000600052601160045260246000fd5b6000612ea382612637565b91507fffffffffffffffffffffffffffffffffffffffffffffffffffffffffffffffff8203612ed557612ed4612e69565b5b600182019050919050565b6000606082019050612ef56000830186612762565b8181036020830152612f0781856125dc565b9050612f166040830184612799565b949350505050565b600081519050919050565b600082825260208201905092915050565b6000612f4582612f1e565b612f4f8185612f29565b9350612f5f8185602086016125a1565b612f68816125cb565b840191505092915050565b6000608082019050612f8860008301876126cc565b612f9560208301866126cc565b612fa26040830185612762565b8181036060830152612fb48184612f3a565b905095945050505050565b600081519050612fce816124f6565b92915050565b600060208284031215612fea57612fe96124c0565b5b6000612ff884828501612fbf565b91505092915050565b600081905092915050565b600061301782612585565b6130218185613001565b93506130318185602086016125a1565b80840191505092915050565b6000613049828561300c565b9150613055828461300c565b91508190509392505050565b60008190508160005260206000209050919050565b60006020601f8301049050919050565b600082821b905092915050565b6000600883026130c37fffffffffffffffffffffffffffffffffffffffffffffffffffffffffffffffff82613086565b6130cd8683613086565b95508019841693508086168417925050509392505050565b6000819050919050565b600061310a61310561310084612637565b6130e5565b612637565b9050919050565b6000819050919050565b613124836130ef565b61313861313082613111565b848454613093565b825550505050565b600090565b61314d613140565b61315881848461311b565b505050565b5b8181101561317c57613171600082613145565b60018101905061315e565b5050565b601f8211156131c15761319281613061565b61319b84613076565b810160208510156131aa578190505b6131be6131b685613076565b83018261315d565b50505b505050565b600082821c905092915050565b60006131e4600019846008026131c6565b1980831691505092915050565b60006131fd83836131d3565b9150826002028217905092915050565b61321682612585565b67ffffffffffffffff81111561322f5761322e612912565b5b6132398254612c3f565b613244828285613180565b600060209050601f8311600181146132775760008415613265578287015190505b61326f85826131f1565b8655506132d7565b601f19841661328586613061565b60005b828110156132ad57848901518255600182019150602085019450602081019050613288565b868310156132ca57848901516132c6601f8916826131d3565b8355505b6001600288020188555050505b505050505050565b7f4e487b7100000000000000000000000000000000000000000000000000000000600052601260045260246000fd5b600061331982612637565b915061332483612637565b925082820390508181111561333c5761333b612e69565b5b92915050565b7f4e487b7100000000000000000000000000000000000000000000000000000000600052603160045260246000fdfea264697066735822122090c41e65ed167a3e6969a6785f2e8834de35e67e7f448f9dc2e0fcb47d88092e64736f6c63430008140033",
  "linkReferences": {},
  "deployedLinkReferences": {}
}