{
  "_format": "hh-sol-artifact-1",
  "contractName": "NFT_MarketPlace",
  "sourceName": "contracts/MarketPlace.sol",
  "abi": [
    {
      "inputs": [],
      "stateMutability": "nonpayable",
      "type": "constructor"
    },
    {
      "anonymous": false,
      "inputs": [
        {
          "indexed": false,
          "internalType": "uint256",
          "name": "TokenId",
          "type": "uint256"
        },
        {
          "indexed": false,
          "internalType": "address",
          "name": "NFtcontract",
          "type": "address"
        },
        {
          "indexed": false,
          "internalType": "uint256",
          "name": "NFTprice",
          "type": "uint256"
        }
      ],
      "name": "BuyNft",
      "type": "event"
    },
    {
      "anonymous": false,
      "inputs": [
        {
          "indexed": true,
          "internalType": "address",
          "name": "HighestAddress",
          "type": "address"
        },
        {
          "indexed": false,
          "internalType": "uint256",
          "name": "HighestBids",
          "type": "uint256"
        }
      ],
      "name": "HighestBidsReceived",
      "type": "event"
    },
    {
      "anonymous": false,
      "inputs": [
        {
          "indexed": false,
          "internalType": "uint256",
          "name": "tokenId",
          "type": "uint256"
        },
        {
          "indexed": false,
          "internalType": "address",
          "name": "NFtcontract",
          "type": "address"
        },
        {
          "indexed": false,
          "internalType": "uint256",
          "name": "NFt_Price",
          "type": "uint256"
        },
        {
          "indexed": false,
          "internalType": "address",
          "name": "NFT_Owner",
          "type": "address"
        },
        {
          "indexed": false,
          "internalType": "uint256",
          "name": "startTime",
          "type": "uint256"
        },
        {
          "indexed": false,
          "internalType": "uint256",
          "name": "endTime",
          "type": "uint256"
        }
      ],
      "name": "ListNFT_ForAuctions",
      "type": "event"
    },
    {
      "anonymous": false,
      "inputs": [
        {
          "indexed": false,
          "internalType": "uint256",
          "name": "tokenId",
          "type": "uint256"
        },
        {
          "indexed": false,
          "internalType": "address",
          "name": "NFtcontract",
          "type": "address"
        },
        {
          "indexed": false,
          "internalType": "uint256",
          "name": "NFt_Price",
          "type": "uint256"
        },
        {
          "indexed": false,
          "internalType": "address",
          "name": "NFT_Owner",
          "type": "address"
        }
      ],
      "name": "ListNFT_fixedRates",
      "type": "event"
    },
    {
      "anonymous": false,
      "inputs": [
        {
          "indexed": false,
          "internalType": "uint8",
          "name": "ServiceFees",
          "type": "uint8"
        },
        {
          "indexed": false,
          "internalType": "uint8",
          "name": "Max_Royalty_Amount",
          "type": "uint8"
        },
        {
          "indexed": false,
          "internalType": "address",
          "name": "NFT_contract",
          "type": "address"
        }
      ],
      "name": "MarketplaceWalletInfo",
      "type": "event"
    },
    {
      "anonymous": false,
      "inputs": [
        {
          "indexed": true,
          "internalType": "address",
          "name": "seller",
          "type": "address"
        },
        {
          "indexed": false,
          "internalType": "uint256",
          "name": "RoyaltyFee_transfer",
          "type": "uint256"
        },
        {
          "indexed": false,
          "internalType": "uint256",
          "name": "NFTprice",
          "type": "uint256"
        }
      ],
      "name": "Royalties_Fee_Calculations",
      "type": "event"
    },
    {
      "anonymous": false,
      "inputs": [
        {
          "indexed": true,
          "internalType": "address",
          "name": "Marketplace_Owner",
          "type": "address"
        },
        {
          "indexed": false,
          "internalType": "uint256",
          "name": "Servicefee",
          "type": "uint256"
        },
        {
          "indexed": false,
          "internalType": "uint256",
          "name": "NFTprice",
          "type": "uint256"
        }
      ],
      "name": "Service_Fee_Calculations",
      "type": "event"
    },
    {
      "anonymous": false,
      "inputs": [],
      "name": "Total_Fees_Calculations",
      "type": "event"
    },
    {
      "anonymous": false,
      "inputs": [],
      "name": "UnlistNFT",
      "type": "event"
    },
    {
      "anonymous": false,
      "inputs": [
        {
          "indexed": true,
          "internalType": "address",
          "name": "Marketplace",
          "type": "address"
        },
        {
          "indexed": false,
          "internalType": "address",
          "name": "Buyer",
          "type": "address"
        },
        {
          "indexed": false,
          "internalType": "uint256",
          "name": "TokenId",
          "type": "uint256"
        }
      ],
      "name": "transferNFT",
      "type": "event"
    },
    {
      "inputs": [
        {
          "internalType": "uint256",
          "name": "_tokenId",
          "type": "uint256"
        },
        {
          "internalType": "address",
          "name": "_nftContract",
          "type": "address"
        },
        {
          "internalType": "uint256",
          "name": "_nftprice",
          "type": "uint256"
        }
      ],
      "name": "ListNFt_FixedRates",
      "outputs": [],
      "stateMutability": "nonpayable",
      "type": "function"
    },
    {
      "inputs": [
        {
          "internalType": "uint256",
          "name": "_tokenId",
          "type": "uint256"
        },
        {
          "internalType": "address",
          "name": "_nftContract",
          "type": "address"
        },
        {
          "internalType": "uint256",
          "name": "_nftprice",
          "type": "uint256"
        },
        {
          "internalType": "uint256",
          "name": "_endTime",
          "type": "uint256"
        }
      ],
      "name": "ListNFt_onAuction",
      "outputs": [],
      "stateMutability": "nonpayable",
      "type": "function"
    },
    {
      "inputs": [
        {
          "internalType": "uint256",
          "name": "_tokenId",
          "type": "uint256"
        },
        {
          "internalType": "uint256",
          "name": "_bids",
          "type": "uint256"
        },
        {
          "internalType": "address",
          "name": "_seller",
          "type": "address"
        },
        {
          "internalType": "address",
          "name": "_nftContract",
          "type": "address"
        }
      ],
      "name": "addBids",
      "outputs": [],
      "stateMutability": "payable",
      "type": "function"
    },
    {
      "inputs": [
        {
          "internalType": "uint256",
          "name": "_tokenId",
          "type": "uint256"
        },
        {
          "internalType": "uint256",
          "name": "_nftPrice",
          "type": "uint256"
        },
        {
          "internalType": "address",
          "name": "_nftcontract",
          "type": "address"
        },
        {
          "internalType": "address",
          "name": "_seller",
          "type": "address"
        }
      ],
      "name": "buyNFT",
      "outputs": [],
      "stateMutability": "payable",
      "type": "function"
    },
    {
      "inputs": [
        {
          "internalType": "uint256",
          "name": "_tokenId",
          "type": "uint256"
        },
        {
          "internalType": "address",
          "name": "_nftcontract",
          "type": "address"
        },
        {
          "internalType": "address",
          "name": "_seller",
          "type": "address"
        }
      ],
      "name": "claimNFT",
      "outputs": [],
      "stateMutability": "nonpayable",
      "type": "function"
    },
    {
      "inputs": [
        {
          "internalType": "address",
          "name": "_seller",
          "type": "address"
        }
      ],
      "name": "getHighestBid",
      "outputs": [
        {
          "internalType": "uint256",
          "name": "",
          "type": "uint256"
        }
      ],
      "stateMutability": "view",
      "type": "function"
    },
    {
      "inputs": [
        {
          "internalType": "address",
          "name": "_seller",
          "type": "address"
        }
      ],
      "name": "getHighestBidderAddress",
      "outputs": [
        {
          "internalType": "address",
          "name": "",
          "type": "address"
        }
      ],
      "stateMutability": "view",
      "type": "function"
    },
    {
      "inputs": [
        {
          "internalType": "address",
          "name": "_wallet",
          "type": "address"
        },
        {
          "internalType": "uint8",
          "name": "_servicefee",
          "type": "uint8"
        },
        {
          "internalType": "uint8",
          "name": "_royaltyPercentage",
          "type": "uint8"
        },
        {
          "internalType": "address",
          "name": "_nftContract",
          "type": "address"
        }
      ],
      "name": "setMarketplaceWallet",
      "outputs": [],
      "stateMutability": "nonpayable",
      "type": "function"
    },
    {
      "inputs": [
        {
          "internalType": "uint256",
          "name": "_tokenId",
          "type": "uint256"
        },
        {
          "internalType": "address",
          "name": "_nftContract",
          "type": "address"
        }
      ],
      "name": "unlistNFT",
      "outputs": [],
      "stateMutability": "nonpayable",
      "type": "function"
    }
  ],
  "bytecode": "0x608060405234801561001057600080fd5b5033600260006101000a81548173ffffffffffffffffffffffffffffffffffffffff021916908373ffffffffffffffffffffffffffffffffffffffff1602179055506132fa806100616000396000f3fe6080604052600436106100865760003560e01c80635304871811610059578063530487181461013657806388b6efad1461015f578063adfcd2cb14610188578063c0abda31146101a4578063d27882b5146101e157610086565b806323a750491461008b5780632766e0e0146100c8578063384088a8146100e45780634b9c30051461010d575b600080fd5b34801561009757600080fd5b506100b260048036038101906100ad9190612528565b61020a565b6040516100bf919061256e565b60405180910390f35b6100e260048036038101906100dd91906125b5565b61035f565b005b3480156100f057600080fd5b5061010b6004803603810190610106919061261c565b610a85565b005b34801561011957600080fd5b50610134600480360381019061012f919061265c565b610df0565b005b34801561014257600080fd5b5061015d600480360381019061015891906126af565b610f04565b005b34801561016b57600080fd5b506101866004803603810190610181919061273b565b6112f7565b005b6101a2600480360381019061019d91906125b5565b611495565b005b3480156101b057600080fd5b506101cb60048036038101906101c69190612528565b611783565b6040516101d891906127b1565b60405180910390f35b3480156101ed57600080fd5b50610208600480360381019061020391906127cc565b61193c565b005b600080600160008473ffffffffffffffffffffffffffffffffffffffff1673ffffffffffffffffffffffffffffffffffffffff16815260200190815260200160002060040180549050036102a257600160008373ffffffffffffffffffffffffffffffffffffffff1673ffffffffffffffffffffffffffffffffffffffff16815260200190815260200160002060030154905061035a565b6000600160008473ffffffffffffffffffffffffffffffffffffffff1673ffffffffffffffffffffffffffffffffffffffff16815260200190815260200160002060050160018060008673ffffffffffffffffffffffffffffffffffffffff1673ffffffffffffffffffffffffffffffffffffffff168152602001908152602001600020600501805490506103379190612862565b8154811061034857610347612896565b5b90600052602060002001549050809150505b919050565b600160008373ffffffffffffffffffffffffffffffffffffffff1673ffffffffffffffffffffffffffffffffffffffff16815260200190815260200160002060000160009054906101000a900473ffffffffffffffffffffffffffffffffffffffff166002808111156103d5576103d46128c5565b5b600160008373ffffffffffffffffffffffffffffffffffffffff1673ffffffffffffffffffffffffffffffffffffffff16815260200190815260200160002060080160019054906101000a900460ff166002811115610437576104366128c5565b5b14610477576040517f08c379a000000000000000000000000000000000000000000000000000000000815260040161046e90612951565b60405180910390fd5b60008290503373ffffffffffffffffffffffffffffffffffffffff168173ffffffffffffffffffffffffffffffffffffffff16636352211e886040518263ffffffff1660e01b81526004016104cc919061256e565b602060405180830381865afa1580156104e9573d6000803e3d6000fd5b505050506040513d601f19601f8201168201806040525081019061050d9190612986565b73ffffffffffffffffffffffffffffffffffffffff1614610563576040517f08c379a000000000000000000000000000000000000000000000000000000000815260040161055a90612a25565b60405180910390fd5b3373ffffffffffffffffffffffffffffffffffffffff16600160008673ffffffffffffffffffffffffffffffffffffffff1673ffffffffffffffffffffffffffffffffffffffff16815260200190815260200160002060000160009054906101000a900473ffffffffffffffffffffffffffffffffffffffff1673ffffffffffffffffffffffffffffffffffffffff1603610633576040517f08c379a000000000000000000000000000000000000000000000000000000000815260040161062a90612a91565b60405180910390fd5b600160008573ffffffffffffffffffffffffffffffffffffffff1673ffffffffffffffffffffffffffffffffffffffff1681526020019081526020016000206007015442106106b7576040517f08c379a00000000000000000000000000000000000000000000000000000000081526004016106ae90612afd565b60405180910390fd5b60006106c28561020a565b905080861180156106d257508534145b610711576040517f08c379a000000000000000000000000000000000000000000000000000000000815260040161070890612b8f565b60405180910390fd5b6000600160008773ffffffffffffffffffffffffffffffffffffffff1673ffffffffffffffffffffffffffffffffffffffff16815260200190815260200160002060050160018060008973ffffffffffffffffffffffffffffffffffffffff1673ffffffffffffffffffffffffffffffffffffffff168152602001908152602001600020600501805490506107a69190612862565b815481106107b7576107b6612896565b5b906000526020600020015490506000600160008873ffffffffffffffffffffffffffffffffffffffff1673ffffffffffffffffffffffffffffffffffffffff16815260200190815260200160002060040160018060008a73ffffffffffffffffffffffffffffffffffffffff1673ffffffffffffffffffffffffffffffffffffffff168152602001908152602001600020600401805490506108599190612862565b8154811061086a57610869612896565b5b9060005260206000200160009054906101000a900473ffffffffffffffffffffffffffffffffffffffff1690508188116108d9576040517f08c379a00000000000000000000000000000000000000000000000000000000081526004016108d090612c21565b60405180910390fd5b8073ffffffffffffffffffffffffffffffffffffffff166108fc839081150290604051600060405180830381858888f1935050505015801561091f573d6000803e3d6000fd5b50600160008873ffffffffffffffffffffffffffffffffffffffff1673ffffffffffffffffffffffffffffffffffffffff168152602001908152602001600020600401339080600181540180825580915050600190039060005260206000200160009091909190916101000a81548173ffffffffffffffffffffffffffffffffffffffff021916908373ffffffffffffffffffffffffffffffffffffffff160217905550600160008873ffffffffffffffffffffffffffffffffffffffff1673ffffffffffffffffffffffffffffffffffffffff1681526020019081526020016000206005018890806001815401808255809150506001900390600052602060002001600090919091909150558073ffffffffffffffffffffffffffffffffffffffff167f4810d1c16a0224d11bd0295b1aebcaa25071dee2d659cbca7a4ed8770e8c5b3b83604051610a72919061256e565b60405180910390a2505050505050505050565b600260009054906101000a900473ffffffffffffffffffffffffffffffffffffffff1673ffffffffffffffffffffffffffffffffffffffff163373ffffffffffffffffffffffffffffffffffffffff1614610b15576040517f08c379a0000000000000000000000000000000000000000000000000000000008152600401610b0c90612c8d565b60405180910390fd5b6000819050600160008273ffffffffffffffffffffffffffffffffffffffff16636352211e866040518263ffffffff1660e01b8152600401610b57919061256e565b602060405180830381865afa158015610b74573d6000803e3d6000fd5b505050506040513d601f19601f82011682018060405250810190610b989190612986565b73ffffffffffffffffffffffffffffffffffffffff1673ffffffffffffffffffffffffffffffffffffffff16815260200190815260200160002060080160009054906101000a900460ff16610c22576040517f08c379a0000000000000000000000000000000000000000000000000000000008152600401610c1990612cf9565b60405180910390fd5b8073ffffffffffffffffffffffffffffffffffffffff166342842e0e30600160003373ffffffffffffffffffffffffffffffffffffffff1673ffffffffffffffffffffffffffffffffffffffff16815260200190815260200160002060000160009054906101000a900473ffffffffffffffffffffffffffffffffffffffff16866040518463ffffffff1660e01b8152600401610cc193929190612d19565b600060405180830381600087803b158015610cdb57600080fd5b505af1158015610cef573d6000803e3d6000fd5b50505050600160003373ffffffffffffffffffffffffffffffffffffffff1673ffffffffffffffffffffffffffffffffffffffff168152602001908152602001600020600080820160006101000a81549073ffffffffffffffffffffffffffffffffffffffff02191690556001820160006101000a81549073ffffffffffffffffffffffffffffffffffffffff021916905560028201600090556003820160009055600482016000610da19190612466565b600582016000610db19190612487565b600682016000905560078201600090556008820160006101000a81549060ff02191690556008820160016101000a81549060ff02191690555050505050565b6000600160008373ffffffffffffffffffffffffffffffffffffffff1673ffffffffffffffffffffffffffffffffffffffff1681526020019081526020016000206004018054905003610e78576040517f08c379a0000000000000000000000000000000000000000000000000000000008152600401610e6f90612d9c565b60405180910390fd5b6000610e8382611783565b90503373ffffffffffffffffffffffffffffffffffffffff168173ffffffffffffffffffffffffffffffffffffffff1614610ef3576040517f08c379a0000000000000000000000000000000000000000000000000000000008152600401610eea90612e08565b60405180910390fd5b610efe848484611d46565b50505050565b60008290503373ffffffffffffffffffffffffffffffffffffffff168173ffffffffffffffffffffffffffffffffffffffff16636352211e866040518263ffffffff1660e01b8152600401610f59919061256e565b602060405180830381865afa158015610f76573d6000803e3d6000fd5b505050506040513d601f19601f82011682018060405250810190610f9a9190612986565b73ffffffffffffffffffffffffffffffffffffffff1614610ff0576040517f08c379a0000000000000000000000000000000000000000000000000000000008152600401610fe790612a25565b60405180910390fd5b600160008273ffffffffffffffffffffffffffffffffffffffff16636352211e876040518263ffffffff1660e01b815260040161102d919061256e565b602060405180830381865afa15801561104a573d6000803e3d6000fd5b505050506040513d601f19601f8201168201806040525081019061106e9190612986565b73ffffffffffffffffffffffffffffffffffffffff1673ffffffffffffffffffffffffffffffffffffffff16815260200190815260200160002060080160009054906101000a900460ff16156110f9576040517f08c379a00000000000000000000000000000000000000000000000000000000081526004016110f090612e74565b60405180910390fd5b6000600160003373ffffffffffffffffffffffffffffffffffffffff1673ffffffffffffffffffffffffffffffffffffffff1681526020019081526020016000209050838160010160006101000a81548173ffffffffffffffffffffffffffffffffffffffff021916908373ffffffffffffffffffffffffffffffffffffffff160217905550828160030181905550848160020181905550338160000160006101000a81548173ffffffffffffffffffffffffffffffffffffffff021916908373ffffffffffffffffffffffffffffffffffffffff16021790555060018160080160006101000a81548160ff02191690831515021790555060016002811115611205576112046128c5565b5b8160080160016101000a81548160ff0219169083600281111561122b5761122a6128c5565b5b021790555061123a8585611f20565b7f9861478be6fef588985abdc4be5ad68bcadd6efd691a1a48c1374179282076cc8585858573ffffffffffffffffffffffffffffffffffffffff16636352211e8a6040518263ffffffff1660e01b8152600401611297919061256e565b602060405180830381865afa1580156112b4573d6000803e3d6000fd5b505050506040513d601f19601f820116820180604052508101906112d89190612986565b6040516112e89493929190612e94565b60405180910390a15050505050565b600260009054906101000a900473ffffffffffffffffffffffffffffffffffffffff1673ffffffffffffffffffffffffffffffffffffffff163373ffffffffffffffffffffffffffffffffffffffff1614611387576040517f08c379a000000000000000000000000000000000000000000000000000000000815260040161137e90612c8d565b60405180910390fd5b60008190508073ffffffffffffffffffffffffffffffffffffffff16639a6dee7f846040518263ffffffff1660e01b81526004016113c59190612ee8565b600060405180830381600087803b1580156113df57600080fd5b505af11580156113f3573d6000803e3d6000fd5b5050505084600360006101000a81548173ffffffffffffffffffffffffffffffffffffffff021916908373ffffffffffffffffffffffffffffffffffffffff16021790555083600360146101000a81548160ff021916908360ff1602179055507f703ac92e789270273b35285eb411d33987813d8ec7585ba83e9f8b4fa44261df84848460405161148693929190612f03565b60405180910390a15050505050565b60008290503373ffffffffffffffffffffffffffffffffffffffff168173ffffffffffffffffffffffffffffffffffffffff16636352211e876040518263ffffffff1660e01b81526004016114ea919061256e565b602060405180830381865afa158015611507573d6000803e3d6000fd5b505050506040513d601f19601f8201168201806040525081019061152b9190612986565b73ffffffffffffffffffffffffffffffffffffffff1603611581576040517f08c379a000000000000000000000000000000000000000000000000000000000815260040161157890612f86565b60405180910390fd5b8334146115c3576040517f08c379a00000000000000000000000000000000000000000000000000000000081526004016115ba90612ff2565b60405180910390fd5b61164985848373ffffffffffffffffffffffffffffffffffffffff16636352211e896040518263ffffffff1660e01b8152600401611601919061256e565b602060405180830381865afa15801561161e573d6000803e3d6000fd5b505050506040513d601f19601f820116820180604052508101906116429190612986565b3388612012565b7f0cb51bcbbec0f14df25db48d5ea9d2e6c18bd6046f4bca1cdbbb72a389c05d0585848660405161167c93929190613012565b60405180910390a1600160008373ffffffffffffffffffffffffffffffffffffffff1673ffffffffffffffffffffffffffffffffffffffff168152602001908152602001600020600080820160006101000a81549073ffffffffffffffffffffffffffffffffffffffff02191690556001820160006101000a81549073ffffffffffffffffffffffffffffffffffffffff0219169055600282016000905560038201600090556004820160006117329190612466565b6005820160006117429190612487565b600682016000905560078201600090556008820160006101000a81549060ff02191690556008820160016101000a81549060ff021916905550505050505050565b6000600160008373ffffffffffffffffffffffffffffffffffffffff1673ffffffffffffffffffffffffffffffffffffffff168152602001908152602001600020600701544211611809576040517f08c379a000000000000000000000000000000000000000000000000000000000815260040161180090613095565b60405180910390fd5b6000600160008473ffffffffffffffffffffffffffffffffffffffff1673ffffffffffffffffffffffffffffffffffffffff1681526020019081526020016000206004018054905014611932576000600160008473ffffffffffffffffffffffffffffffffffffffff1673ffffffffffffffffffffffffffffffffffffffff16815260200190815260200160002060040160018060008673ffffffffffffffffffffffffffffffffffffffff1673ffffffffffffffffffffffffffffffffffffffff168152602001908152602001600020600401805490506118eb9190612862565b815481106118fc576118fb612896565b5b9060005260206000200160009054906101000a900473ffffffffffffffffffffffffffffffffffffffff16905080915050611937565b600090505b919050565b60008390503373ffffffffffffffffffffffffffffffffffffffff168173ffffffffffffffffffffffffffffffffffffffff16636352211e876040518263ffffffff1660e01b8152600401611991919061256e565b602060405180830381865afa1580156119ae573d6000803e3d6000fd5b505050506040513d601f19601f820116820180604052508101906119d29190612986565b73ffffffffffffffffffffffffffffffffffffffff1614611a28576040517f08c379a0000000000000000000000000000000000000000000000000000000008152600401611a1f90612a25565b60405180910390fd5b600160008273ffffffffffffffffffffffffffffffffffffffff16636352211e886040518263ffffffff1660e01b8152600401611a65919061256e565b602060405180830381865afa158015611a82573d6000803e3d6000fd5b505050506040513d601f19601f82011682018060405250810190611aa69190612986565b73ffffffffffffffffffffffffffffffffffffffff1673ffffffffffffffffffffffffffffffffffffffff16815260200190815260200160002060080160009054906101000a900460ff1615611b31576040517f08c379a0000000000000000000000000000000000000000000000000000000008152600401611b2890612e74565b60405180910390fd5b6000600160003373ffffffffffffffffffffffffffffffffffffffff1673ffffffffffffffffffffffffffffffffffffffff1681526020019081526020016000209050848160010160006101000a81548173ffffffffffffffffffffffffffffffffffffffff021916908373ffffffffffffffffffffffffffffffffffffffff160217905550838160030181905550858160020181905550428160060181905550828160070181905550338160000160006101000a81548173ffffffffffffffffffffffffffffffffffffffff021916908373ffffffffffffffffffffffffffffffffffffffff16021790555060018160080160006101000a81548160ff02191690831515021790555060016002811115611c4f57611c4e6128c5565b5b8160080160016101000a81548160ff02191690836002811115611c7557611c746128c5565b5b0217905550611c848686611f20565b7f1ad3ad83cf683fe746c845dd788f8b868a9e4ecad12a804b2ba4e077cb3f9b2d8686868573ffffffffffffffffffffffffffffffffffffffff16636352211e8b6040518263ffffffff1660e01b8152600401611ce1919061256e565b602060405180830381865afa158015611cfe573d6000803e3d6000fd5b505050506040513d601f19601f82011682018060405250810190611d229190612986565b4288604051611d36969594939291906130b5565b60405180910390a1505050505050565b60008290506000611d568361020a565b90506000611d6384611783565b9050600073ffffffffffffffffffffffffffffffffffffffff168173ffffffffffffffffffffffffffffffffffffffff1614611e2057611e1f86868573ffffffffffffffffffffffffffffffffffffffff16636352211e8a6040518263ffffffff1660e01b8152600401611dd7919061256e565b602060405180830381865afa158015611df4573d6000803e3d6000fd5b505050506040513d601f19601f82011682018060405250810190611e189190612986565b8486612012565b5b600160008573ffffffffffffffffffffffffffffffffffffffff1673ffffffffffffffffffffffffffffffffffffffff168152602001908152602001600020600080820160006101000a81549073ffffffffffffffffffffffffffffffffffffffff02191690556001820160006101000a81549073ffffffffffffffffffffffffffffffffffffffff021916905560028201600090556003820160009055600482016000611ece9190612466565b600582016000611ede9190612487565b600682016000905560078201600090556008820160006101000a81549060ff02191690556008820160016101000a81549060ff02191690555050505050505050565b60008190508073ffffffffffffffffffffffffffffffffffffffff166342842e0e8273ffffffffffffffffffffffffffffffffffffffff16636352211e866040518263ffffffff1660e01b8152600401611f7a919061256e565b602060405180830381865afa158015611f97573d6000803e3d6000fd5b505050506040513d601f19601f82011682018060405250810190611fbb9190612986565b30866040518463ffffffff1660e01b8152600401611fdb93929190612d19565b600060405180830381600087803b158015611ff557600080fd5b505af1158015612009573d6000803e3d6000fd5b50505050505050565b60008490506120ac82600360149054906101000a900460ff1630878573ffffffffffffffffffffffffffffffffffffffff16631af9cf498c6040518263ffffffff1660e01b8152600401612066919061256e565b602060405180830381865afa158015612083573d6000803e3d6000fd5b505050506040513d601f19601f820116820180604052508101906120a7919061312b565b61224f565b508073ffffffffffffffffffffffffffffffffffffffff166342842e0e3085896040518463ffffffff1660e01b81526004016120ea93929190612d19565b600060405180830381600087803b15801561210457600080fd5b505af1158015612118573d6000803e3d6000fd5b505050508073ffffffffffffffffffffffffffffffffffffffff1663095ea7b384886040518363ffffffff1660e01b8152600401612157929190613158565b600060405180830381600087803b15801561217157600080fd5b505af1158015612185573d6000803e3d6000fd5b505050508073ffffffffffffffffffffffffffffffffffffffff1663a22cb4658460016040518363ffffffff1660e01b81526004016121c592919061319c565b600060405180830381600087803b1580156121df57600080fd5b505af11580156121f3573d6000803e3d6000fd5b505050503073ffffffffffffffffffffffffffffffffffffffff167f69e9cae16381b423d45d007dcd0595bac81c3e1ef9e295a6e286eff0119e80d6338860405161223f929190613158565b60405180910390a2505050505050565b60008086905060006122628888886122e2565b905060006122718986886123a4565b9050808261227f91906131c5565b8361228a9190612862565b92508573ffffffffffffffffffffffffffffffffffffffff166108fc849081150290604051600060405180830381858888f193505050501580156122d2573d6000803e3d6000fd5b5082935050505095945050505050565b60008060648460ff16866122f691906131f9565b612300919061326a565b90508273ffffffffffffffffffffffffffffffffffffffff166108fc829081150290604051600060405180830381858888f19350505050158015612348573d6000803e3d6000fd5b508273ffffffffffffffffffffffffffffffffffffffff167f97b312894ad8d264e6798adeeb4646c44f61d7364a0ca7ec72a68e7426a54252828760405161239192919061329b565b60405180910390a2809150509392505050565b60008060648460ff16866123b891906131f9565b6123c2919061326a565b90508273ffffffffffffffffffffffffffffffffffffffff166108fc829081150290604051600060405180830381858888f1935050505015801561240a573d6000803e3d6000fd5b508273ffffffffffffffffffffffffffffffffffffffff167f09342684b2fffdd12bdfb91a37cf469c786e6c01c18c8c72d07dace1c37b5694828760405161245392919061329b565b60405180910390a2809150509392505050565b508054600082559060005260206000209081019061248491906124a8565b50565b50805460008255906000526020600020908101906124a591906124a8565b50565b5b808211156124c15760008160009055506001016124a9565b5090565b600080fd5b600073ffffffffffffffffffffffffffffffffffffffff82169050919050565b60006124f5826124ca565b9050919050565b612505816124ea565b811461251057600080fd5b50565b600081359050612522816124fc565b92915050565b60006020828403121561253e5761253d6124c5565b5b600061254c84828501612513565b91505092915050565b6000819050919050565b61256881612555565b82525050565b6000602082019050612583600083018461255f565b92915050565b61259281612555565b811461259d57600080fd5b50565b6000813590506125af81612589565b92915050565b600080600080608085870312156125cf576125ce6124c5565b5b60006125dd878288016125a0565b94505060206125ee878288016125a0565b93505060406125ff87828801612513565b925050606061261087828801612513565b91505092959194509250565b60008060408385031215612633576126326124c5565b5b6000612641858286016125a0565b925050602061265285828601612513565b9150509250929050565b600080600060608486031215612675576126746124c5565b5b6000612683868287016125a0565b935050602061269486828701612513565b92505060406126a586828701612513565b9150509250925092565b6000806000606084860312156126c8576126c76124c5565b5b60006126d6868287016125a0565b93505060206126e786828701612513565b92505060406126f8868287016125a0565b9150509250925092565b600060ff82169050919050565b61271881612702565b811461272357600080fd5b50565b6000813590506127358161270f565b92915050565b60008060008060808587031215612755576127546124c5565b5b600061276387828801612513565b945050602061277487828801612726565b935050604061278587828801612726565b925050606061279687828801612513565b91505092959194509250565b6127ab816124ea565b82525050565b60006020820190506127c660008301846127a2565b92915050565b600080600080608085870312156127e6576127e56124c5565b5b60006127f4878288016125a0565b945050602061280587828801612513565b9350506040612816878288016125a0565b9250506060612827878288016125a0565b91505092959194509250565b7f4e487b7100000000000000000000000000000000000000000000000000000000600052601160045260246000fd5b600061286d82612555565b915061287883612555565b92508282039050818111156128905761288f612833565b5b92915050565b7f4e487b7100000000000000000000000000000000000000000000000000000000600052603260045260246000fd5b7f4e487b7100000000000000000000000000000000000000000000000000000000600052602160045260246000fd5b600082825260208201905092915050565b7f4e6674206973204e4f542061766169616c626c6520666f722041554354494f4e600082015250565b600061293b6020836128f4565b915061294682612905565b602082019050919050565b6000602082019050818103600083015261296a8161292e565b9050919050565b600081519050612980816124fc565b92915050565b60006020828403121561299c5761299b6124c5565b5b60006129aa84828501612971565b91505092915050565b7f596f7520617265206e6f7420746865206f776e6572206f662074686973204e4660008201527f5400000000000000000000000000000000000000000000000000000000000000602082015250565b6000612a0f6021836128f4565b9150612a1a826129b3565b604082019050919050565b60006020820190508181036000830152612a3e81612a02565b9050919050565b7f43616e27742073656c6620626964000000000000000000000000000000000000600082015250565b6000612a7b600e836128f4565b9150612a8682612a45565b602082019050919050565b60006020820190508181036000830152612aaa81612a6e565b9050919050565b7f41756374696f6e2074696d65206973206f766572000000000000000000000000600082015250565b6000612ae76014836128f4565b9150612af282612ab1565b602082019050919050565b60006020820190508181036000830152612b1681612ada565b9050919050565b7f42696473206d7573742062652067726561746572207468616e206c617374206260008201527f6964000000000000000000000000000000000000000000000000000000000000602082015250565b6000612b796022836128f4565b9150612b8482612b1d565b604082019050919050565b60006020820190508181036000830152612ba881612b6c565b9050919050565b7f626964206d7573742062652067726561746572207468616e206c61737420626960008201527f6400000000000000000000000000000000000000000000000000000000000000602082015250565b6000612c0b6021836128f4565b9150612c1682612baf565b604082019050919050565b60006020820190508181036000830152612c3a81612bfe565b9050919050565b7f596f7520617265206e6f7420746865204f776e65720000000000000000000000600082015250565b6000612c776015836128f4565b9150612c8282612c41565b602082019050919050565b60006020820190508181036000830152612ca681612c6a565b9050919050565b7f4e4654206973206e6f74204c6973746564000000000000000000000000000000600082015250565b6000612ce36011836128f4565b9150612cee82612cad565b602082019050919050565b60006020820190508181036000830152612d1281612cd6565b9050919050565b6000606082019050612d2e60008301866127a2565b612d3b60208301856127a2565b612d48604083018461255f565b949350505050565b7f6e6f206269647320726563656976656400000000000000000000000000000000600082015250565b6000612d866010836128f4565b9150612d9182612d50565b602082019050919050565b60006020820190508181036000830152612db581612d79565b9050919050565b7f43616c6c6572206973206e6f7420746865206869676865737420626964646572600082015250565b6000612df26020836128f4565b9150612dfd82612dbc565b602082019050919050565b60006020820190508181036000830152612e2181612de5565b9050919050565b7f416c7265616479204c6973746564000000000000000000000000000000000000600082015250565b6000612e5e600e836128f4565b9150612e6982612e28565b602082019050919050565b60006020820190508181036000830152612e8d81612e51565b9050919050565b6000608082019050612ea9600083018761255f565b612eb660208301866127a2565b612ec3604083018561255f565b612ed060608301846127a2565b95945050505050565b612ee281612702565b82525050565b6000602082019050612efd6000830184612ed9565b92915050565b6000606082019050612f186000830186612ed9565b612f256020830185612ed9565b612f3260408301846127a2565b949350505050565b7f43616e6e6f742073656c66204275790000000000000000000000000000000000600082015250565b6000612f70600f836128f4565b9150612f7b82612f3a565b602082019050919050565b60006020820190508181036000830152612f9f81612f63565b9050919050565b7f496e53756666696369656e7420416d6f756e7400000000000000000000000000600082015250565b6000612fdc6013836128f4565b9150612fe782612fa6565b602082019050919050565b6000602082019050818103600083015261300b81612fcf565b9050919050565b6000606082019050613027600083018661255f565b61303460208301856127a2565b613041604083018461255f565b949350505050565b7f41756374696f6e206973206e6f74206f76657200000000000000000000000000600082015250565b600061307f6013836128f4565b915061308a82613049565b602082019050919050565b600060208201905081810360008301526130ae81613072565b9050919050565b600060c0820190506130ca600083018961255f565b6130d760208301886127a2565b6130e4604083018761255f565b6130f160608301866127a2565b6130fe608083018561255f565b61310b60a083018461255f565b979650505050505050565b6000815190506131258161270f565b92915050565b600060208284031215613141576131406124c5565b5b600061314f84828501613116565b91505092915050565b600060408201905061316d60008301856127a2565b61317a602083018461255f565b9392505050565b60008115159050919050565b61319681613181565b82525050565b60006040820190506131b160008301856127a2565b6131be602083018461318d565b9392505050565b60006131d082612555565b91506131db83612555565b92508282019050808211156131f3576131f2612833565b5b92915050565b600061320482612555565b915061320f83612555565b925082820261321d81612555565b9150828204841483151761323457613233612833565b5b5092915050565b7f4e487b7100000000000000000000000000000000000000000000000000000000600052601260045260246000fd5b600061327582612555565b915061328083612555565b9250826132905761328f61323b565b5b828204905092915050565b60006040820190506132b0600083018561255f565b6132bd602083018461255f565b939250505056fea2646970667358221220756f07e7f7a338e623a57d6af1cb217efd667aac1a6d04035dd67f6e43d251f764736f6c63430008140033",
  "linkReferences": {},
  "deployedLinkReferences": {}
}